{
  "contractName": "LiquidityValueCalculator",
  "abi": [
    {
      "inputs": [
        {
          "internalType": "address",
          "name": "factory_",
          "type": "address"
        }
      ],
      "stateMutability": "nonpayable",
      "type": "constructor"
    },
    {
      "inputs": [],
      "name": "factory",
      "outputs": [
        {
          "internalType": "address",
          "name": "",
          "type": "address"
        }
      ],
      "stateMutability": "view",
      "type": "function",
      "constant": true
    },
    {
      "inputs": [
        {
          "internalType": "uint256",
          "name": "liquidity",
          "type": "uint256"
        },
        {
          "internalType": "address",
          "name": "tokenA",
          "type": "address"
        },
        {
          "internalType": "address",
          "name": "tokenB",
          "type": "address"
        }
      ],
      "name": "computeLiquidityShareValue",
      "outputs": [
        {
          "internalType": "uint256",
          "name": "tokenAAmount",
          "type": "uint256"
        },
        {
          "internalType": "uint256",
          "name": "tokenBAmount",
          "type": "uint256"
        }
      ],
      "stateMutability": "nonpayable",
      "type": "function"
    }
  ],
  "bytecode": "0x608060405234801561001057600080fd5b506040516107773803806107778339818101604052602081101561003357600080fd5b8101908080519060200190929190505050806000806101000a81548173ffffffffffffffffffffffffffffffffffffffff021916908373ffffffffffffffffffffffffffffffffffffffff160217905550506106e3806100946000396000f3fe608060405234801561001057600080fd5b50600436106100365760003560e01c80634ef0c6cc1461003b578063c45a0155146100c4575b600080fd5b6100a76004803603606081101561005157600080fd5b8101908080359060200190929190803573ffffffffffffffffffffffffffffffffffffffff169060200190929190803573ffffffffffffffffffffffffffffffffffffffff16906020019092919050505061010e565b604051808381526020018281526020019250505060405180910390f35b6100cc61014e565b604051808273ffffffffffffffffffffffffffffffffffffffff1673ffffffffffffffffffffffffffffffffffffffff16815260200191505060405180910390f35b600080600061011d8585610173565b809350819450829550505050858382028161013457fe5b04868383028161014057fe5b049250925050935093915050565b6000809054906101000a900473ffffffffffffffffffffffffffffffffffffffff1681565b6000806000806101a56000809054906101000a900473ffffffffffffffffffffffffffffffffffffffff1687876103b6565b90508073ffffffffffffffffffffffffffffffffffffffff166318160ddd6040518163ffffffff1660e01b815260040160206040518083038186803b1580156101ed57600080fd5b505afa158015610201573d6000803e3d6000fd5b505050506040513d602081101561021757600080fd5b810190808051906020019092919050505091506000808273ffffffffffffffffffffffffffffffffffffffff16630902f1ac6040518163ffffffff1660e01b815260040160606040518083038186803b15801561027357600080fd5b505afa158015610287573d6000803e3d6000fd5b505050506040513d606081101561029d57600080fd5b81019080805190602001909291908051906020019092919080519060200190929190505050506dffffffffffffffffffffffffffff1691506dffffffffffffffffffffffffffff1691508273ffffffffffffffffffffffffffffffffffffffff16630dfe16816040518163ffffffff1660e01b815260040160206040518083038186803b15801561032d57600080fd5b505afa158015610341573d6000803e3d6000fd5b505050506040513d602081101561035757600080fd5b810190808051906020019092919050505073ffffffffffffffffffffffffffffffffffffffff168873ffffffffffffffffffffffffffffffffffffffff16146103a15780826103a4565b81815b80965081975050505050509250925092565b60008060006103c58585610511565b91509150858282604051602001808373ffffffffffffffffffffffffffffffffffffffff1673ffffffffffffffffffffffffffffffffffffffff1660601b81526014018273ffffffffffffffffffffffffffffffffffffffff1673ffffffffffffffffffffffffffffffffffffffff1660601b8152601401925050506040516020818303038152906040528051906020012060405160200180807fff000000000000000000000000000000000000000000000000000000000000008152506001018373ffffffffffffffffffffffffffffffffffffffff1673ffffffffffffffffffffffffffffffffffffffff1660601b8152601401828152602001807f96e8ac4277198ff8b6f785478aa9a39f403cb768dd02cbee326c3e7da348845f815250602001925050506040516020818303038152906040528051906020012060001c925050509392505050565b6000808273ffffffffffffffffffffffffffffffffffffffff168473ffffffffffffffffffffffffffffffffffffffff161415610599576040517f08c379a00000000000000000000000000000000000000000000000000000000081526004018080602001828103825260258152602001806106896025913960400191505060405180910390fd5b8273ffffffffffffffffffffffffffffffffffffffff168473ffffffffffffffffffffffffffffffffffffffff16106105d35782846105d6565b83835b8092508193505050600073ffffffffffffffffffffffffffffffffffffffff168273ffffffffffffffffffffffffffffffffffffffff161415610681576040517f08c379a000000000000000000000000000000000000000000000000000000000815260040180806020018281038252601e8152602001807f556e697377617056324c6962726172793a205a45524f5f41444452455353000081525060200191505060405180910390fd5b925092905056fe556e697377617056324c6962726172793a204944454e544943414c5f414444524553534553a2646970667358221220b6b4b6643d6fd6373fa2e6f32642127361bae2c7da70f9d9edef444779c97d7564736f6c63430006060033",
  "immutableReferences": {},
  "source": "pragma solidity ^0.6.6;\n\nimport './interfaces/ILiquidityValueCalculator.sol';\nimport '@uniswap/v2-periphery/contracts/libraries/UniswapV2Library.sol';\nimport '@uniswap/v2-core/contracts/interfaces/IUniswapV2Pair.sol';\n\ncontract LiquidityValueCalculator is ILiquidityValueCalculator {\n    address public factory;\n    constructor(address factory_) public {\n        factory = factory_;\n    }\n\n    function pairInfo(address tokenA, address tokenB) internal view returns (uint reserveA, uint reserveB, uint totalSupply) {\n        IUniswapV2Pair pair = IUniswapV2Pair(UniswapV2Library.pairFor(factory, tokenA, tokenB));\n        totalSupply = pair.totalSupply();\n        (uint reserves0, uint reserves1,) = pair.getReserves();\n        (reserveA, reserveB) = tokenA == pair.token0() ? (reserves0, reserves1) : (reserves1, reserves0);\n    }\n \n    function computeLiquidityShareValue(uint liquidity, address tokenA, address tokenB) external override returns (uint tokenAAmount, uint tokenBAmount) {\n        uint tSupply;\n        (tokenAAmount, tokenBAmount, tSupply) = pairInfo(tokenA, tokenB);\n        return (tSupply*tokenAAmount/liquidity, tSupply*tokenBAmount/liquidity);\n    }\n}\n",
  "sourcePath": "/Users/student/Desktop/work/blockchainIntro/firstIntegrationUniswap/contracts/LiquidityValueCalculator.sol",
  "compiler": {
    "name": "solc",
    "version": "0.6.6+commit.6c089d02.Emscripten.clang"
  },
  "schemaVersion": "3.3.4",
  "updatedAt": "2021-04-18T08:25:41.886Z",
  "networkType": "ethereum",
  "devdoc": {
    "methods": {}
  },
  "userdoc": {
    "methods": {}
  }
}